:020000040800F2
:1040000000D70120C14100082DF50308B541000883
:10401000CD410008CF410008D14100080000000058
:10402000000000000000000000000000410F040834
:10403000D54100080000000031F5030829100408EC
:10404000DB410008DB410008DB410008DB410008E0
:10405000DB410008DB410008DB410008DB410008D0
:10406000DB410008DB410008DB410008FD1D0108C1
:10407000DB410008DB410008DB410008DB410008B0
:10408000DB410008DB410008DB410008DB410008A0
:10409000DB410008DB410008DB410008DB41000890
:1040A000DB410008DB410008DB410008DB41000880
:1040B000F9100408DB410008DB410008DB4100087F
:1040C000DB410008DB410008DB410008DB41000860
:1040D000DB4100086518040871180408DB4100087A
:1040E000DB410008DB410008DB410008DB41000840
:1040F000DB410008DB410008DB410008DB41000830
:10410000DB410008DB410008DB410008DB4100081F
:10411000DB410008DB410008DB410008DB4100080F
:10412000251E0108DB410008DB410008DB410008D7
:10413000000000000000000000000000DB4100085B
:10414000DB410008DB410008DB4100080000000003
:1041500000000000DB410008DB410008DB410008F3
:10416000DB410008DB410008000000000000000007
:10417000DB410008DB4100080000000000000000F7
:104180000000000000000000DB410008DB410008E7
:104190007D180408DB410008DB4100080000000036
:1041A000DFF80CD001F0E6F800480047D15C0408C5
:1041B00000D70120704669463FF000F9FFF7FEFF87
:1041C0000648804706480047FEE7FEE7FEE7FEE7B1
:1041D000FEE7FEE7FEE7FEE7FEE7FEE75110040814
:1041E000A14100082DE9F05F0546002092469B465C
:1041F00088460646814640241BE0284641464746FD
:10420000224600F09BFE53465A46C01A914110D3F5
:1042100011461846224600F082FE2D1A67EB01086F
:104220004F4622460120002100F079FE17EB0009DD
:104230004E41201EA4F10104DFDC484631462A46E7
:104240004346BDE8F09FA0F14101192900D8203074
:10425000704700000649074A0868504343F2390294
:10426000104408604008704701490860704700002A
:10427000000000206D4EC64110B5431A934209D28A
:104280008318881803E010F8011D03F8011D521E61
:10429000F9D210BD40EA01039B0703D009E008C929
:1042A000121F08C0042AFAD203E011F8013B00F8FB
:1042B000013B521EF9D210BDD2B201E000F8012B31
:1042C000491EFBD270470022F6E710B513460A4696
:1042D00004461946FFF7F0FF204610BD421E12F8B3
:1042E000013F002BFBD111F8013B02F8013B002BF1
:1042F000F9D1704730B505462A460B4612F8010B36
:1043000013F8014B08B1A042F8D01CB1002802D02C
:104310006D1CF1E7284630BD10B5044604E00B786B
:1043200000F8013B03B1491C521EF8D2204610BDD3
:10433000CAB2401E10F8011F8A4202D00029F9D1EA
:1043400000207047421C10F8011B0029FBD1801A85
:10435000704710B5002200E0521C835C8C5CA342C5
:1043600001D1002BF8D1D8B2E1B2401A10BD30B55E
:1043700004460020034600E05B1C934203D2E05C4D
:10438000CD5C401BF8D030BD034611F8012B00F87E
:10439000012B002AF9D11846704730B50546002098
:1043A000034600E05B1C934205D2EC5CC85C201A1B
:1043B00001D1002CF6D130BD0022CBB20178994258
:1043C00000D10246401C0029F8D110467047000079
:1043D0000FB400B58DB010A909900B9000914FF06B
:1043E000FF300A9000200C90054806900548079081
:1043F0006A4609A80F9900F0D7FD0DB05DF814FBCF
:10440000C54F0008E34F00082DE9FF5F1D464FF040
:10441000FF3BD5E9014691465F464FF00008A96988
:104420007F1C01988847296A824688470028F6D170
:10443000BAF1FF3F0CD024F4C064002E19DD6006F1
:1044400014D5BAF12B0F09D0BAF12D0F0ED103E01C
:10445000584604B0BDE8F09F44F48064A9697F1C0D
:1044600001988847761E8246002E02DDBAF1300F91
:1044700003D0B9F1000F26D032E0A969761E44F4CA
:1044800000747F1C019888478246002E05DDBAF132
:10449000780F06D0BAF1580F03D0B9F1000F10D041
:1044A0001EE0B9F1000F02D0B9F1100F18D1A969BF
:1044B000761E24F400747F1C0198884782461020E1
:1044C00002E0082000E00A20814609E008FB090814
:1044D000A969761E44F400747F1C019888478246BF
:1044E000002E05DD4946504600F04AFD0028EDDA71
:1044F000E96901988847A00502D46FF00100A8E798
:10450000E00725D1600613D5600502D5C8F100008B
:1045100000E0404629680A1D2A600968220501D585
:10452000087015E0220701D5088011E008600FE04F
:104530002868011D29600068210502D580F80080E7
:1045400006E0210702D5A0F8008001E0C0F8008055
:1045500038467EE72DE9FF5FD2E901A74FF000085A
:10456000916999461446DDF838B046460198884767
:10457000054659EA0B0005D009E0A169761C0198AF
:1045800088470546216A284688470028F5D1681CD7
:1045900003D05FEACA7005D015E04FF0FF3004B0D9
:1045A000BDE8F09F2068011D2160D0F800800AE07E
:1045B0005FEACA7001D108F8015BA169761C7F1E11
:1045C000019888470546002F1ADD681C18D0B9F1FC
:1045D000000F0DD0E81705EBD060421120F01F004E
:1045E00059F822102A1A012090400142E0D107E038
:1045F000BBF1000FDCD1216A284688470028D7D0BC
:10460000E16901988847BBF1000F07D1002E05DD55
:104610005FEACA7002D1002188F80010A068B84291
:1046200003DDBBF1000F03D017B16FF00100B6E757
:104630003046B4E72DE9FF4F087883B09946FF284C
:1046400005D0491C2D2804D00024002008E00020BB
:104650000BE00124F9E700EB800003EB4000491C6C
:104660000B78FF2BF7D104B140420023029314785A
:1046700019461D462D2C01D02B2C04D1521C2D2C5B
:1046800013D000240294AA461478FF2C0FD00A25D8
:10469000A3FB057801FB05814FF0000C03FB0C1117
:1046A000521CE3194AEB0101EEE70124EAE78144D9
:1046B00053EA010002D019F5C87F06DA03980021F9
:1046C000C0E9001107B0BDE8F08F0025AE4E2F46BF
:1046D000DFF8B882184600F0F9FDCDE90001B9F124
:1046E000000002DAC9F1000400E004460023A74AF2
:1046F0001AEB030B42EB045A12E0E00707D02A46FC
:1047000033463846414600F006FA074688462A46B0
:1047100033461046194600F0FEF905460E46641071
:10472000002CEAD1DDE90001B9F1000F5A465346E9
:1047300006DA00F062FA3A46434600F05EFA05E017
:1047400000F0E9F93A46434600F0E5F9029A0AB169
:1047500081F00041039AC2E90001B3E72DE9FF4F60
:104760001F468DB0D7E901464FF0FF382E20454651
:104770004FF000090B90B9696D1C0E988847396A93
:10478000824688470028F6D1BAF1FF3F0AD024F4C8
:10479000D064002E11DDBAF12B0F08D0BAF12D0F25
:1047A0000BD102E0404611B08DE744F48064B96952
:1047B0006D1C0E9888478246761E6946600501D5B5
:1047C0002D2000E02B208DF8000001F1010B0DF1F0
:1047D000200809E0B9696D1C0E98884782460F9839
:1047E00044F40074761E0560002E02DDBAF1300F2D
:1047F000F0D00B998A453ED144F0800406E00F9931
:10480000681CA9F1010944F400740860B9696D1CC1
:10481000761E0E98884782463028F0D02BE00B9900
:104820008A4505D1200603D444F08004761E18E0A2
:1048300050464FF08FFD08B30DF11302761EAAF11A
:10484000300044F40074934506D20BF8010B2006A7
:1048500007D5A9F1010003E0200602D409F1010007
:104860008146A00502D50F99681C0860B9696D1CC6
:104870000E9888478246002ED1DC53E0002E51DD91
:10488000BAF1650F02D0BAF1450F4BD1A00549D559
:10489000B9696D1C24F44074761E0E9888478246D0
:1048A000002E0CDD2B2804D0BAF12D0F07D144F4D3
:1048B0008074B9696D1C0E9888478246761EE005A3
:1048C00001D52D2100E02B2108F8011BCDF82C800B
:1048D00021E00DF12901761E44F4007488450CD2C4
:1048E000AAF1300010F0FF0088F8000002D10B9907
:1048F000884509D908F1010806E0E00501D52448FA
:1049000001E042F20F708146B9696D1C0E9888472C
:1049100082460F980560002E04DD50464FF01AFDC8
:104920000028D6D1F9690E988847FF208BF800003F
:1049300088F800000020069007904B466A4608A9B8
:1049400006A8FFF777FEA00502D46FF001002AE762
:1049500014F0240F0AD0E00714D1DDE906123868FC
:10496000031D3B600068C0E900120BE0DDE90601B1
:1049700000F0A3FA0146E00704D13868021D3A604E
:104980000068016028460EE7000014400000F03F78
:10499000F1D8FFFF70B506464FF05AFB0468054694
:1049A0000A220021304600F081FB2C6070BD70B5FA
:1049B00006464FF04DFB046805460A2200213046AA
:1049C00000F074FB2C6070BD2DE9FE4F804681EA3B
:1049D0000300C00F0C46009021F0004123F0004579
:1049E000B8EB0200A94105D24046214690461C463C
:1049F0000B46024623F00040104347D0270DC7F373
:104A00000A00C3F30A510290401A019040286BDA61
:104A1000C3F3130040F4801B0098924620B100239A
:104A2000D2EB030A63EB0B0B01985946C0F140022D
:104A3000504600F074FA06460D4650465946019A13
:104A400000F08CFA10EB08006141002487EA115253
:104A500084EAE7731A4340D0009A62B3019A012AAC
:104A60004FEA075215DC001B61EB02014FF00042D8
:104A700002EA0752CDE90042001C41F5801132469E
:104A80002B4600F091FB03B0BDE8F08F4046214675
:104A9000F9E7001B61EB0201001C41F580130018CF
:104AA0005B412018A2F5001747EB030140EAD570DF
:104AB000B6196D4111E06D084FEA360645EAC0753A
:104AC0004FEA0752001B61EB0201001C41F5801107
:104AD00049084FEA30000019514132462B4603B0D5
:104AE000BDE8F04F00F051BB0098012240000023C8
:104AF000D0EB020263EBE073009821464FEAE074CA
:104B0000B8EB000061EB0401E9E783F000435BE7E9
:104B100081F0004158E72DE9FE4F81EA030404F0DB
:104B2000004421F0004100944FF0000B23F00043BB
:104B300050EA01045ED052EA03045BD0C3F30A5486
:104B4000C1F30A552C44A4F2F3340194A0FB02549F
:104B5000C1F3130141F48011C3F3130343F4801331
:104B600001FB024400FB034E840A970A44EA815485
:104B700047EA8357A4FB076802958D0A05FB078562
:104B80004FEA932C04FB0C542705029D4FEA06586C
:104B900047EA1637B5EB08056EEB070C870E920E49
:104BA00047EA811742EA8312A7FB0201B6EB0B0129
:104BB00064EB00042B0D43EA0C335E1844EB1C50ED
:104BC000DA465146E7FB0201C5F313044FEA0B3303
:104BD00043EA14534FEA0432019C43EA0603A4F16A
:104BE0000C040294009CCDE900B400F0DDFA03B09F
:104BF000BDE8F08F00200146F9E72DE9F04D81EA8C
:104C0000030404F0004B21F0004514464FF0000A65
:104C100023F0004150EA050220D054EA01021DD0E1
:104C2000C5F30A570246C5F31303C1F31300C1F3DA
:104C30000A5640F4801543F48013A7EB0608101BB6
:104C4000D64608F2FD3873EB050002D308F10108DF
:104C500001E092185B41B8F1000F03DA0020014631
:104C6000BDE8F08D00204FF48011064684460EE02A
:104C7000171B73EB050705D3121B63EB05030643F4
:104C80004CEA010C49084FEA300092185B4150EAA7
:104C90000107EDD152EA030012D082EA040083EA50
:104CA0000501084305D0101BAB4106D201220023A9
:104CB00006E000224FF0004302E06FF001025310C3
:104CC0001AEB06004CEB085110EB0A0041EB0B010C
:104CD000BDE8F04D00F059BA30B5041E71F1000482
:104CE00004DB4FF00044404264EB0101141E73F1F9
:104CF000000405DB1C464FF00043524263EB040303
:104D0000801A994101D3012030BD002030BD30B55B
:104D1000041E71F1000404DB4FF00044404264EBD8
:104D20000101141E73F1000405DB1C464FF0004323
:104D3000524263EB0403101A8B4101D2012030BDB3
:104D4000002030BD30B5041E71F1000404DB4FF0CB
:104D50000044404264EB0101141E73F1000405DBC2
:104D60001C464FF00043524263EB0403101A8B4180
:104D700001D3012030BD002030BD30B5041E71F1DB
:104D8000000404DB4FF00044404264EB0101141EB8
:104D900073F1000405DB1C464FF00043524263EB05
:104DA0000403801A994101D2012030BD002030BD9A
:104DB00030B5041E71F1000404DB4FF000444042A2
:104DC00064EB0101141E73F1000405DB1C464FF077
:104DD0000043524263EB040342404B401A4301D06C
:104DE000002030BD012030BD0EB5C10F80EAE0705B
:104DF0000844CA07002140F233438DE80E000A46FA
:104E00000B4600F0D1F903B000BD0EB540F23341BE
:104E100002910021CDE900110A460B4600F0C4F9C9
:104E200003B000BD70B5C1F30A5201F00045002483
:104E3000C1F3130140F2FF3341F480119A4201DAC9
:104E4000002070BD40F233439A42A2F2334203DCA9
:104E5000524200F073F800E090402C43F1D0404201
:104E600070BDC1F30A5210B5C1F3130140F2FF3314
:104E700041F480119A4201DA002010BD40F2334320
:104E80009A42A2F2334203DC524200F057F810BDBE
:104E9000904010BD00F0004230F000400AD0C10D3B
:104EA00001F56071C0F3160042EA0151C2084007E3
:104EB0001143704700200146704701F0004330B4B1
:104EC00021F0004150EA010206D00A0DA2F56072FD
:104ED000C1F31301002A02DC30BC00207047440FEC
:104EE00044EAC104C100E01830BC00EBC25000F03D
:104EF00015B930B50B46014600202022012409E0F7
:104F000021FA02F59D4205D303FA02F5491B04FA82
:104F100002F52844151EA2F10102F1DC30BD202A61
:104F200004DB203A00FA02F1002070479140C2F100
:104F3000200320FA03F3194390407047202A04DB32
:104F4000203A21FA02F00021704721FA02F3D04002
:104F5000C2F120029140084319467047202A06DB1F
:104F6000CB17203A41FA02F043EAE07306E041FA37
:104F700002F3D040C2F12002914008431946704725
:104F80003A2800D2303820F02002412A01D3A2F181
:104F90003700884201D34FF0FF3070470268114458
:104FA0001378016018467047D16004495161044983
:104FB000116200211161114600F0FCB99D4F0008FB
:104FC000A1530008426842B1016811F8013B23B1C6
:104FD000521EC0E90012184670470121C160881EA8
:104FE000704742685AB1C368016843B983688B420D
:104FF00005D0491E521CC0E90012002070474FF036
:10500000FF3070470FB40B0010B58AB00FA90091A4
:105010000E994FF00004234ACC60214CCDE90642A2
:1050200000D004236FF00042CDE901321E4A0892FD
:1050300002466B460020FFF791FB0AB010BC5DF8FA
:1050400014FBF0B585B007464FF0FF300091CDE975
:1050500001011E46002015460C4604903B466A4658
:10506000314604A8FFF7CEFF04990346601825B126
:1050700009B1024600E022462A6000290ED0002B2A
:1050800002DD0099814209D00094001BCDE90104A2
:105090003B466A46314604A8FFF7B4FF05B0F0BDB1
:1050A000C54F0008E34F0008A15300082DE9F04761
:1050B00091460F4680460446002614F8015B2DB148
:1050C00000F06AF90068405DC007F6D12B2D02D0D0
:1050D0002D2D18D0641E4A463946204600F000FBAC
:1050E00027B13968A14201D1C7F8008071054FF09E
:1050F00002040BD54042002803DD4EF0A9FF0460F6
:10510000A007BDE8F08746F48066E4E70028F8DAF7
:105110004EF09EFF04606FF00040F2E70029A8BF48
:105120007047401C490008BF20F00100704710B4D0
:10513000B0FA80FC00FA0CF050EA010404BF10BC85
:10514000704749B1CCF1200421FA04F411FA0CF1B2
:1051500018BF012121430843A3EB0C01CB1D4FEAEB
:1051600000614FEA102042BF002010BC704700EBE6
:10517000C35010440029A4BF10BC7047401C490014
:1051800008BF20F0010010BC704710B5141E73F169
:10519000000408DA401C41F1000192185B411A43F7
:1051A00001D120F0010010BD2DE9F04D92469B4643
:1051B00011B1B1FA81F202E0B0FA80F220329046E9
:1051C000FFF7ADFE04460F4640EA0A0041EA0B0134
:1051D00053465A46084313D0114653EA010019D0EA
:1051E000C8F140025046FFF7A9FE05460E4650465C
:1051F00059464246FFF793FE084305D0012004E0DC
:1052000020463946BDE8F08D0020054346EAE076A9
:105210002C4337430A986305E40AA0EB08000022F8
:10522000FD0A44EA47540A3002D500200146E9E766
:10523000010510196941DDE9084500196941BDE81A
:10524000F04DA2E72DE9F041054621F000400C4663
:10525000284309D0C4F30A5040F23341884205DDA7
:1052600028462146BDE8F0812846FBE740F2FE31A2
:10527000884210DC0CDB4FEA043040EA155050EA5B
:10528000053105D0104804F0004101430020E9E752
:1052900000200146E6E7A0F233404642C6F1400254
:1052A00028462146FFF73BFE07468846284621460A
:1052B0003246FFF743FE43463A46FFF766FF324663
:1052C000BDE8F041FFF72BBE0000F03F0EB540F205
:1052D000334202920022CDE900221346FFF764FF19
:1052E00003B000BDC1F30A52C1F3130140F2FF3312
:1052F00041F480119A4202DA00200146704740F2E0
:1053000033439A42A2F2334202DC5242FFF716BE06
:10531000FFF705BE30B5041E71F1000404DB4FF049
:105320000044404264EB0101141E73F1000405DBEC
:105330001C464FF00043524263EB04038B4208BF0C
:10534000824230BD30B5041E71F1000404DB4FF021
:105350000044404264EB0101141E73F1000405DBBC
:105360001C464FF00043524263EB0403994208BFCE
:10537000904230BD064C074D06E0E06840F0010366
:1053800094E8070098471034AC42F6D3FEF70CFFC0
:10539000642E0608842E060800487047A44B0508B2
:1053A00010B50446FFF7F8FF0068005D00F001004B
:1053B00010BD00002DE9F34F8BB04FF0000801F154
:1053C0000C000C464FF0010B46460DF1080A019007
:1053D0006269012101989047051E2DD0252D2CD002
:1053E000216A8847C0B16269012101989047216A0A
:1053F00088470028F7D1411E62690198904700E074
:10540000761CA1690B988847216A88470028F7D144
:10541000E1690B988847DBE7A1690B988847074645
:10542000A84201D1761CD3E7E1690B9888477F1C1D
:1054300002D1B8F1000F6FD046E1002762693D4606
:105440003946019890472A2804D1626901210198C0
:1054500090470125DFF88492626901210198904705
:10546000A0F130010A290AD24F45E5DC07EB87019C
:1054700000EB4107303FDFD445F01005ECE7E906CB
:1054800001D46FF000476C280AD04C2814D068284B
:1054900015D06A280DD074281CD07A281AD01DE0A7
:1054A00062690121019890476C2802D045F00405FB
:1054B00014E045F002050DE045F020050AE06269C0
:1054C000012101989047682802D045F0080505E0C1
:1054D00045F400656269012101989047C4E90157CC
:1054E00065283DD019DC58287AD00CDC452837D007
:1054F00004DC252826D0412831D131E046282FD0A0
:1055000047282CD12CE05B2877D0612828D063284D
:105510007CD0642823D15AE0D0E06F2848D008DC42
:1055200066281DD067281BD0692821D06E2816D187
:1055300027E0702845D0732868D0752847D0782890
:105540000DD14DE0A1690B988847054625283FF409
:1055500069AFE1690B9888476D1C3FF46AAFB3E00F
:1055600023466A466FF001000B99FFF7F7F89EE0BB
:1055700045F040006060A80723464FF0000236D493
:105580003EE0E8077FF447AF2068011D2160006816
:10559000290501D506701BE7290701D5068017E705
:1055A000A90703D5F117C0E9006111E706600FE70D
:1055B00045F040006060A80723464FF0080216D46B
:1055C0001EE040F60E0125EA0100606016E045F09D
:1055D00040006060A80723464FF00A0207D40FE09E
:1055E00045F040006060A80708D5234610226FF000
:1055F00001000B99AFF3008059E007E02346102229
:105600006FF001000B99FEF7FFFE50E04FF000092C
:105610004F464B46632802D05B2806D040E0E806A0
:1056200001D40120A06001273AE0626901210198BC
:1056300090475E2805D14FF00109626949460198FB
:105640009047216939B900210A46534643F8212081
:10565000491C0829FADBB0B3216969B9C11700EB0D
:10566000D16253110AEB830122F01F02821A01203A
:105670000B68904003430B606269012101989047D9
:105680005D28E8D1B9F1000F09D00020514651F84A
:105690002020D24341F82020401C0828F7DB02AB31
:1056A000224600976FF001000B99FEF753FF002888
:1056B0000CDA401C08D1BBF1000F05D04FF0FF30D1
:1056C0000DB0BDE8F08FFFE74046F9E7E90701D1EB
:1056D00008F1010806444FF0000B79E6CCCCCC0C65
:1056E0002DE9F05F82460078002715468B460AF1C7
:1056F0000104B946302801D09DB113E014F8010B24
:105700000127782803D0582801D045B10AE00DB10F
:10571000102D07D10027102514F8010B02E00825F1
:1057200000E00A250026B0460EE005FB080005FB58
:1057300006F1012701EB10461FFA80F8B6F5803F0D
:1057400000D3B94614F8010B2946FFF719FC0028CD
:10575000EBDABBF1000F05D00FB1641E00E0544638
:10576000CBF80040B9F1000F06D04EF071FC0221D9
:105770000160C81EBDE8F09F48EA0640FAE770B530
:105780008C1810F8015B15F0070301D110F8013BEC
:105790002A1106D110F8012B03E010F8016B01F873
:1057A000016B5B1EF9D12B0705D40023521E0DD4CB
:1057B00001F8013BFAE710F8013BCB1A921C03E019
:1057C00013F8015B01F8015B521EF9D5A142D8D351
:1057D000002070BD2DE9F04385B002B390460D4620
:1057E000814600F1B0070026A859AC190190606805
:1057F000E168A2680491CDE90202204649460DF015
:10580000B1FF204639463CF0BFFC01AB049A0BCBFC
:1058100010364645FA60BB6079603860E4D305B065
:10582000BDE8F0832DE9F04700F1B0080646404698
:10583000AAB18A4691460025414654460AEB05071F
:1058400038463CF0A1FC384631460BF0A1FA103541
:10585000214610344D45F1D30AEB0500103801689C
:105860004268C3688068C8F80C30C8F80800C8F8F7
:105870000420C8F80010BDE8F0870000B0B5144659
:10588000054637F0CBF820686168E268A368C5F880
:10589000BC20C5F8B830C5F8B410C5F8B000B0BD2C
:1058A000B0B50446806E002584F83E5018B148F02B
:1058B000CDF8C4E91A556068042806D8012101FA18
:1058C00000F010F0190F18BFB0BD607808F068FA4A
:1058D0006078072108F0F6F96078122108F0F2F9F3
:1058E00060782146032200F06DFDB0BD70B5072A37
:1058F0000C4609D0122A18D160782146042200F003
:1059000061FD0025284670BD94F83C000026012862
:105910004FF0000505D10125204684F83D50FFF7E2
:10592000BFFF284684F83C6070BD0125204684F8FE
:105930003D50FFF7B5FF284670BD0000F0B583B0BD
:105940008F6F1D4607F1530630461446FEF7FAFCEA
:1059500080B20FF2380C009011A22046294633463F
:10596000CDF804C00BF0E2FD07F16C0605463046A9
:10597000FEF7E8FC80B20CA7009010A22046294652
:10598000334601970BF0D2FD03B0F0BD676E5F6642
:1059900074705F66775F7265616465720000000015
:1059A0005B4E414D455D0000643261613238656592
:1059B0003961383639336462000000005B50535758
:1059C0005D0000002DE9F04194B003AE0C468D6FF0
:1059D0003046412198461746FEF775FC00208DF8A9
:1059E0000B000DF10B003AF025FF85352846FEF738
:1059F000A9FC78B181B21BA2284604230BF0ECFD70
:105A000020B1421B03A82946FEF736FC9DF80B5037
:105A100003AB05E09DF80B5041F2A803C0F6060366
:105A200012A23046412100954EF0CAFA3046FEF7E8
:105A300089FC80B241F2C90200903846C0F60602E5
:105A40004146334601960BF071FD0546012084F86E
:105A500060000BF0B9FC01462846E16514B0BDE8D2
:105A6000F08100BF2E62696E00000000257325647E
:105A70002E62696E0000000080B582B0886F194602
:105A800043681046013B4FF0000C18BF012303A2EE
:105A9000CDF800C00BF006FD02B080BD5B46494C5E
:105AA00045545950455D0000F0B583B08F6F1C46DA
:105AB00007F10A0630461546FEF744FC80B20FF2A5
:105AC000280C00900DA2284621463346CDF804C08C
:105AD0000BF02CFD3B89014615270AA228460097AA
:105AE0000BF0E0FC03B0F0BD66772E6674702E6795
:105AF0006F6E676E69752E636E0000005B464950DD
:105B00005D0000005B46504F52545D0070B582B09E
:105B1000886F1C4600F1C60630461546FEF712FC9B
:105B200080B20FF2180C009009A228462146334695
:105B3000CDF804C00BF0FAFC02B070BD2F41435FFA
:105B400070696C652F44335F41333246422F000049
:105B50005B504154485D000080B582B0886B8C4634
:105B60000028104604BF0122CCF838201946DCF882
:105B7000383041F2C0024FF0010CC0F60602CDF8F9
:105B800000C00BF08FFC02B080BD0000F0B583B008
:105B90008F6F1D463868144690B107F18506304670
:105BA000FEF7D0FB80B241F2C9020FF2640C009004
:105BB0002046C0F6060229463346CDF804C00CE064
:105BC00041F2D003082041F2C902C0F6060300905A
:105BD0002046C0F60602294601930BF0A7FC0146B9
:105BE0003868012807D141F2B90201272046C0F6E2
:105BF0000602012306E041F2B90202272046C0F660
:105C00000602022300970BF04DFC03B0F0BD00BF6D
:105C100044335F41333246422E6C6F670000000010
:105C2000F0B583B00E4600270DF10A0001A91D460C
:105C30001446ADF80A7001973AF012FEBDF80A005A
:105C400098B1B36B41F2C00201262046C0F60602AD
:105C5000294600960BF026FCBDF80A30014604A246
:105C6000204600970BF01EFC0546284603B0F0BD09
:105C70005B4C454E5D000000F0B583B00E4600273A
:105C80000DF10A0001A91D461446ADF80A700197EE
:105C90003AF0E6FDBDF80A0090B1B36B41F2C002E4
:105CA00001262046C0F60602294600960BF0FAFBB4
:105CB000019B014604A2204600970BF0F3FB05462A
:105CC000284603B0F0BD00BF5B4F46465345545DC8
:105CD00000000000F0B581B000200F4627F8580FF3
:105CE0000C464FF4806039461E4615463AF064F87B
:105CF000388858B1216D0844B0F5C83F2AD9012031
:105D000084F85A003AF04CFA607807E03AF048FA22
:105D1000206DA8B36078012184F85A10072107F09C
:105D2000D1FF6078082107F0CDFF6078092107F0E6
:105D3000C9FF60780A2107F0C5FF60780B2107F0E2
:105D4000C1FF60780C2107F0BDFF60780D2107F0DE
:105D5000B9FF18E0A36B41F2C00201272846C0F644
:105D60000602314600970BF09DFBB4F8583001460F
:105D7000002706A2284600970BF094FB01B0F0BD67
:105D8000032009F0F3FF002001B0F0BD5B53495A36
:105D9000455D00002DE9F04182B0886F1E4600F19C
:105DA000850528460C461746FEF7CCFA80B241F22C
:105DB000A808009011A238463146C0F606082B46C6
:105DC000CDF804800BF0B2FB06462846FEF7BAFA7F
:105DD00080B20CA20090384631462B46CDF80480A4
:105DE0000BF0A4FB0546012084F85B000BF0ECFAF5
:105DF00001462846616502B0BDE8F0815B46494C2A
:105E000045315D005B46494C45325D002DE9F04F60
:105E100083B040F626490546C2F2000900208846B4
:105E200099F80060ADF80A0001900DF10A0001A98F
:105E30001C4617461A803AF013FDBDF80A1059B3F4
:105E400006EBC60005F1840202EB001B5E4636F845
:105E50006C0F58B35D4655F8683F13B3DA463AF80D
:105E60006E2F8A421DD1A2EB00091FFA89F1184456
:105E7000B94288BFB9461FFA89F24146FEF7FCF9DC
:105E8000308848443080A4F800903088BAF8001078
:105E900088423AD2002560E007203AF037FE01251B
:105EA0005BE007203AF032FE012556E0B94221D9E5
:105EB0005D4655F8680F48B94FF4806047F0CAFD59
:105EC0000028286004BF07203AF020FE286888B325
:105ED000BDF80A900025ABF86E903580B94588BFB3
:105EE000B94641464A46FEF7C7F9A6F80090A4F81D
:105EF000009032E0404621803AF0F6FB01280DD1B7
:105F00005846FFF7CDFC012527E028683AF0ECFB66
:105F1000012811D15846FFF7C3FC19E099F8000099
:105F2000042107F0CFFE99F80000052107F0CAFE12
:105F3000012512E0012510E040F62644C2F20004DB
:105F40002078042107F0BEFE2078052107F0BAFE74
:105F500000203080AAF800000125284603B0BDE8E3
:105F6000F08F000080B54878042200F02BFA012061
:105F700080BD0000B0B582B005460020CDE900002C
:105F8000104641F295020C46C0F6060219460A2355
:105F90000BF022FBB0B10DA101AA6B46FEF718FA77
:105FA00002280FD10098013801280BD894F83E0040
:105FB000012807D1002084F83E002846214602220D
:105FC00000F000FA012002B0B0BD00BF2B514654D2
:105FD00050535441543A2025642C25640D0A000086
:105FE00070B584B00C468E6F104616A21946092370
:105FF0000BF0F2FA10B316A103AA02ABFEF7E8F910
:1060000002281BD1DDE9025355EA03000ED015A288
:106010000A20022100950CF09FFC012084F83D002D
:106020002046FFF73DFC002004B070BD3168607869
:1060300001290CBF1021112107F044FE012004B0FA
:1060400070BD00BF2B514654504357443A000000E6
:106050002B514654504357443A2025642C25640D57
:106060000A000000465450E58887E68DA2E8B7AFE5
:10607000E5BE84E5A4B1E8B4A52C20657272313A7E
:106080002025642C20657272323A20256420210D6F
:106090000A00000080B5104640F618421946C0F6C6
:1060A000060202230BF098FA002818BF012080BDD9
:1060B000B0B5104640F618420C46C0F60602194626
:1060C00002230BF089FA50B1012584F83E500BF001
:1060D0007BF920640BF078F9A0642846B0BD002558
:1060E0002846B0BD0022012081F83C207047000006
:1060F000F0B581B00546104641F282020C468F6F22
:106100000026C0F606021946092300960BF064FA31
:10611000E0B320A16A46FEF75BF9012825D100987B
:106120000121A063386884F83C1001281FD194F83D
:106130005A00012825D16078082107F0C3FD607856
:10614000092107F0BFFD60780A2107F0BBFD6078E8
:106150000B2107F0B7FD60780C2107F0B3FD6078E4
:106160000D2107F0AFFD012610E000260EE02846C5
:10617000042107F0A7FD2846052107F0A3FD01260D
:1061800004E02846062107F09DFD0126304601B0B7
:10619000F0BD00BF2B51464F50454E3A2025640DAF
:1061A0000A0000002DE9F04383B014461E460D4658
:1061B000804600273AA2204619460823ADF80A7007
:1061C00001970BF009FA002865D041F2C36208304C
:1061D000C0F60602072102230BF0FEF990B3074632
:1061E0000DF10A0001A93AF03BFBBDF80A1059B3C2
:1061F0000237381B341A1FFA84F90A9A894525D2C6
:10620000A86E168020B10022A5F86C20A5F86E10AB
:1062100021042CD020B94FF4806047F01BFCA86605
:10622000A86E50B3BDF80A104A46A5F86E1039465C
:10623000FEF722F840460121A5F86C40012707F03F
:10624000B3FE28E0002726E0002724E00844108061
:1062500038463AF049FA012804D12846FFF720FBD6
:10626000002718E0686803280CD1002713E0404697
:106270000121012707F098FE0DE007203AF046FCC7
:10628000002708E04046042107F01CFD4046052198
:1062900007F018FD0127384603B0BDE8F08300BFC2
:1062A000434F4E4E4543542000000000F0B583B0EC
:1062B0000546104641F28C020C468F6F0026C0F650
:1062C000060219460823CDE901660BF085F9E0B313
:1062D0001FA102AA01ABFEF77BF802280DD102999B
:1062E0003868B1F5C83FE16409D901280CD12846C6
:1062F000032107F0E7FC012627E0002625E001281E
:106300001CD139F04DFF1CE06078082107F0DAFC61
:106310006078092107F0D6FC60780A2107F0D2FCEA
:1063200060780B2107F0CEFC60780C2107F0CAFCE6
:1063300060780D2107F0C6FC012606E006203AF041
:10634000E5FB032009F012FD0026304603B0F0BD46
:106350002B51464C44533A2025642C25640D0A00E9
:10636000B0B582B004460020ADF806004CF654707B
:106370000D46C2F200000DF106024FF4806139F0C3
:10638000D9FDBDF8061081B1B5F8580081420CD195
:106390004CF65470C2F200002A4605F089FEBDF8A2
:1063A0000600296D0844286504E039F0F9FE032051
:1063B00009F0DCFC2046002107F0F6FD012002B0C8
:1063C000B0BD000010B5022812D8034648680C463C
:1063D00090420DD0042A626008D0022A09D0012A16
:1063E00018BF10BD002084F83E0010BD002060647E
:1063F00010BD0020E06584F85B0005A20A200221A0
:106400000CF0AAFA60780F2107F05CFC10BD00BF09
:106410005B736F636B65743A2025645D465450E688
:106420009C8DE58AA1E599A8E5BBBAE7AB8BE8BFEF
:106430009EE68EA5E68890E58A9F210D0A00000061
:1064400070B582B00C464968042914D0022928D0BE
:10645000012959D194F83E00012855D1206C45F608
:106460009071C0F201010AF0D5FF00284ED00AF069
:10647000ABFF20643BE0054694F83D0001283ED187
:10648000616C002953D020690AF0C4FFE0B30021F9
:10649000607884F83D1021460022FFF793FF02B098
:1064A00070BD94F85B00012811D1606D4EF660213B
:1064B0000AF0B0FF58B1002084F85B000AF084FFB6
:1064C0006065012084F83D002046FFF7E9F994F863
:1064D0006000012818D1E06D4EF660210AF09AFFA5
:1064E00090B1002084F860000AF06EFFE0650120A2
:1064F00084F83D002046FFF7D3F902B070BD607804
:1065000021460022FFF75EFF02B070BDA06C40F68E
:10651000B8310AF07FFF0028F6D00AF055FF617805
:10652000A06408460E2107F0CDFB02B070BD207DAF
:10653000A66F0130C1B2052920750BD3032009F0E5
:1065400015FC3068012802D139F02AFE02E0022051
:106550003AF0DCFAD4F88000002818BF804741F2F6
:10656000883060640AF030FF616C267D2061009104
:1065700004A20A2002212B4601960CF0EDF902B08C
:1065800070BD00BF5B736F636B65743A2025645DFB
:10659000202564206D7320E5908EE8BF9BE8A18CD8
:1065A000E7ACAC20256420E6ACA120E9878DE69617
:1065B000B0E8BF9EE68EA5210D0A000070B50C461E
:1065C0004968054621B128462146FFF739FF2BE0EF
:1065D0002078012828D1A66F07F05AFD022818BF9D
:1065E00070BD306840F62646C2F2000601283570BC
:1065F0001BD194F85A0001281ED16078082107F0B9
:1066000061FB6078092107F05DFB60780A2107F0E3
:1066100059FB60780B2107F055FB60780C2107F0DF
:1066200051FB60780D2111E070BD94F83C00012809
:1066300002D12846042109E02846072107F042FB41
:106640002846012107F03EFB2846022107F03AFBCD
:10665000307821460122FFF7B5FE70BD70B584B0D9
:1066600040F626460C46C2F200060021357802911B
:1066700019A103AA02ABFDF7ABFE022829D1039BA7
:10668000843483B1029E19A20A20022100960CF0E4
:1066900063F905EBC500012104EB001080F83D1003
:1066A000FFF7FEF815E005EBC50004EB00142546E6
:1066B00015F8600F01280CD13078032107F002FB98
:1066C0000020029B287015A20A20022163660CF0AC
:1066D00043F9002004B070BD2B5146545047455437
:1066E0003A2025642C25640D0A000000465450E42D
:1066F000B88BE8BDBDE69687E4BBB6E5A4B1E8B4C7
:10670000A52C20657272313A2025642C20657272A6
:10671000323A20256420210D0A000000465450E43E
:10672000B88BE8BDBDE69687E4BBB6E68890E58AFF
:106730009F2C20E69687E4BBB6E995BFE5BAA6EFA5
:10674000BC9A20256420210D0A00000070B584B099
:1067500040F62645C2F200050C462E7816A103AA83
:1067600002ABFDF735FE022823D106EBC601DDE9B9
:10677000026304F1840000EB011456EA03000CD01C
:1067800012A20A20022100960CF0E6F8012084F8FB
:106790003D002046FFF784F80BE0204610F83E1F2E
:1067A000012906D100210170287821460222FFF735
:1067B00009FE002004B070BD2B514654504F504587
:1067C0004E3A2025642C25640D0A0000465450E8FA
:1067D000BF9EE68EA5E5A4B1E8B4A5EFBC8C6572BA
:1067E00072313A2025642C20657272323A20256479
:1067F00020210D0A00000000B0B584B00C4640F620
:106800002641C2F200010D780021029119A103AACC
:1068100002ABFDF7DDFD022828D1039B843493B140
:10682000DDF808C018A20A200221CDF800C00CF043
:1068300093F805EBC500012104EB001080F83D1032
:10684000FFF72EF812E005EBC50004EB001010F87E
:106850005B1F01290AD100210170032009F086FA8B
:10686000029B15A20A2002210CF076F8002004B049
:10687000B0BD00BF2B514654505055543A202564AA
:106880002C25640D0A000000465450E4B88AE4BC8C
:10689000A0E69687E4BBB6E5A4B1E8B4A5EFBC8C4E
:1068A000657272313A2025642C20657272323A206A
:1068B000256420210D0A0000465450E4B88AE4BC47
:1068C000A0E69687E4BBB6E68890E58A9F2C20E692
:1068D0009687E4BBB6E995BFE5BAA6EFBC9A20253A
:1068E0006420210D0A00000070B582B040F62645F4
:1068F000C2F200050C462E7812A16A4601ABFDF7E4
:1069000067FD022813D106EBC60004F1840101EBF8
:106910000010009AB0F858108A4208D1006D019911
:10692000884204D12878062107F0CCF904E039F038
:1069300037FC032009F01AFA07F046FB002002B0EA
:1069400070BD00BF2B514657524954453A2025642B
:106950002C25640D0A00000010B504464068002193
:10696000042884F83C10A4F8481005D8012101FA45
:1069700000F010F0190F07D1607807F011FA607875
:106980002146042200F046F941F26E40C2F20000B6
:10699000FF21017010BD000080B50846FFF7DCFF45
:1069A000012080BD80B582B0886F1946B0F80832EA
:1069B000104641F2C642C0F6060200930AF072FD8C
:1069C00002B080BD80B582B0886F1946036810465A
:1069D000DA1E18BF0122530002A200930AF062FDE2
:1069E00002B080BD5B545950455D000070B582B067
:1069F0008D6F1946D5F80C361446002608A220469D
:106A000000960AF04FFDB5F8103641F2C642014635
:106A10002046C0F6060200960AF044FD02B070BDA2
:106A20005B504F535D00000080B582B019461046A0
:106A30004FF0000C03A20023CDF800C00AF032FD95
:106A400002B080BD5B454E41424C455D00000000F8
:106A500080B582B0886F19468388104641F2C642DD
:106A6000C0F6060200930AF01DFD02B080BD0000D2
:106A700010B501200C4681F83C000AF0A5FC014647
:106A80000120216410BD0000B0B50C468D6F0021BF
:106A900007F08AFAB5F8082205F20A21012001253B
:106AA00038F012FC07F090FA84F83C500AF08CFCA5
:106AB000014601202164B0BD2DE9F04F85B00D469F
:106AC0004F6CD1F8789080463CA110461E46144683
:106AD000FDF710FC10B300F10901A1EB040ADDF889
:106AE00038B00AEB0703B3421AD995F8487041F25F
:106AF00013420A20C0F606020121009601970BF00E
:106B00002BFFD9F80000002102282846ABF80060CE
:106B1000696447D100F066F801264AE0002648E0A3
:106B2000B8B209F20A2BB0F5806F88BF4FF48067C6
:106B3000BCB258462246FDF79FFB07EB0A010E9AAE
:106B4000002006310BF80400A9F808720126118014
:106B500085F84800686440462946022289F80B6699
:106B600000F058F82CB3D9F8000002281ED158467E
:106B7000214639F0B9FD39F091FE032818D80DF1FE
:106B8000120003A939F06CFE39F04CFEBDF812106A
:106B9000C9F80C06A9F810164046082107F092F82B
:106BA000012606E0FFF7D8FE012602E0012600E0FC
:106BB0000126304605B0BDE8F08F00BF434F4E4E72
:106BC0004543540D0A00000010B58C6F002107F0FA
:106BD000EBF9A288A11D012038F076FB07F0F4F94B
:106BE000012010BDB0B5044690F8480002280AD82C
:106BF0000130012584F8480084F849500AF0E4FB8C
:106C0000E0642846B0BD2046FFF7A6FE00252846D2
:106C1000B0BD000080B5022811D8034648689042F4
:106C20000DD0042A4A6008D0022A09D0012A18BFD0
:106C300080BD002081F83C0080BD0020886380BDBD
:106C40000020087502A20A2001210BF085FE80BDFC
:106C50005B736F636B65743A2025645D2048545400
:106C600050E8BF9EE68EA5E5BBBAE7AB8BE6889001
:106C7000E58A9F210D0A000070B582B00C4691F89C
:106C8000491016460129054613D1E06C4FF4FA610C
:106C90000AF0C0FB01280CD1002084F849002846E6
:106CA000082107F00FF842A20A2001212B460BF021
:106CB00053FE6068042816D0022821D001281DD177
:106CC00094F83C00012819D1206C4EF660210AF09E
:106CD000A1FB98B12046FFF73FFE41F2D9220A20DE
:106CE000C0F606025DE0A16B79B320690AF092FB61
:106CF00020B1607821460022FFF78CFF02B070BD02
:106D000094F83C000128F9D1206C47F230510AF088
:106D100081FB0028F2D0306802283DD194F8480069
:106D200041F25642461C0A20C0F6060201212B46BB
:106D300000960BF011FE2046FFF754FF0028DDD02F
:106D4000002084F83C0002B070BD207D0130C1B24B
:106D50000529207504D3E0680521217509F006F89E
:106D6000D4F88000002818BF8047207D47F23051BA
:106D7000022808BF42F2107138BF41F28831A16386
:106D80000AF022FBA16B267D2061009110A20A204F
:106D900001212B46019606E02046FFF7DDFD1AA2F1
:106DA0000A2001212B460BF0D7FD02B070BD00BFB9
:106DB0005B736F636B65743A2025645D204854549F
:106DC00050204745544558E9878DE8AF950D0A0096
:106DD0005B736F636B65743A2025645D20256420C6
:106DE0006D7320E5908EE8BF9BE8A18CE7ACAC20EA
:106DF000256420E6ACA1E9878DE696B0E8BF9EE663
:106E00008EA5210D0A0000005B736F636B65743AF9
:106E10002025645D2048545450E8AFB7E6B182E8BD
:106E2000B685E697B62C20E585B3E997AD736F6319
:106E30006B65740D0A00000070B50E464968B56FA9
:106E4000044629B1204631462A46FFF715FF70BD9A
:106E500030780128FBD107F01BF90228F7D141F265
:106E60006E40C2F20000047006F138004021FDF7C8
:106E70002AFA707831460122FFF7CCFE2046012124
:106E800006F020FF2046022106F01CFF20460321C9
:106E900006F018FF2046042106F014FF20460521C5
:106EA00006F010FF2046062106F00CFF2868032894
:106EB00009D002280CD0012818BF70BD2046072138
:106EC00006F000FF70BD2046092106F0FBFE70BDF4
:106ED0002046082106F0F6FE70BD0000F0B585B032
:106EE00041F26E46C2F20006144632780D46022A7E
:106EF0004FF000010491CDE9021143D80DF1080CC7
:106F000022A104AA03ABCDF800C0FDF761FA032863
:106F10001BD1307805F1840100EBC002049E01EB27
:106F200002170EB3039D97F8484027A20A200121BB
:106F30002B4600940BF010FD0EBBA5F5FA706328EC
:106F40001DD83846FFF74EFE1CE015A20A2001218D
:106F500023460BF001FD307800EBC00005EB00107C
:106F60008430FFF73FFE0DE00399C82918BFCE29F2
:106F7000D8D1029979640A2106F0A4FE02E03846CD
:106F8000FFF7EAFC002005B0F0BD00BF2B514854CC
:106F900054504745543A2025642C25642C25640020
:106FA000485454502047455420555243E8A7A3E67F
:106FB0009E90E5A4B1E8B4A52C20646174614C6591
:106FC0006E3D25640D0A0000485454502047455436
:106FD000E69C8DE58AA1E599A8E4B8B4E697B6E603
:106FE0009585E99A9C2C20636F64653D25642C206F
:106FF000E7ACAC2564E6ACA1E9878DE8AF950D0A56
:107000000000000070B584B041F26E44C2F200048A
:1070100022780D46022A4FF000010391CDE90111BB
:107020002AD801AE16A103AA02AB0096FDF7D0F94B
:10703000032821D12678DDE902438435002B08BFDF
:10704000C82C0FD014A20A20012100940BF084FC5C
:1070500006EBC600002105EB001080F83C10FFF79E
:107060007BFC09E006EBC600019905EB00104164CA
:1070700030460A2106F026FE002004B070BD00BF95
:107080002B5148545450504F53543A2025642C25CA
:10709000642C2564000000004854545020504F5385
:1070A00054E5A4B1E8B4A52C206572723D25642C8A
:1070B00020636F64653D25640D0A000080B582B0D1
:1070C0000021019107A101AAFDF782F9012806D14B
:1070D000019B23B107A20A2001210BF03DFC0020F7
:1070E00002B080BD2B5148545450524541443A207F
:1070F00025640000485454502052454144E5A4B151
:10710000E8B4A52C206572723D25640D0A000000CC
:1071100010B5044640680021042884F84810A4F8FB
:10712000401006D8012101FA00F010F0190F18BF25
:1071300010BD607806F034FE60780C2106F0C2FDC8
:1071400060782146032200F07DFA10BD80B50C2A3C
:1071500005D14878042200F075FA002080BD084669
:10716000FFF7D6FF012080BD70B582B01C461546E2
:107170000346104640F65D128E6FC0F606022146A9
:1071800000930AF08FF971680129014607D140F692
:107190006A1204242846C0F60602042306E040F6DC
:1071A0006A1203242846C0F60602032300940AF05C
:1071B00079F93389014633B140F662122846C0F6A8
:1071C0000602009307E0B42640F662122846C0F695
:1071D0000602B42300960AF065F902B070BD000003
:1071E0002DE9F04182B01C4615460346104640F694
:1071F0005D128F6FC0F60602214600930AF052F925
:1072000007F5A86604463046FDF79CF880B240F6C4
:107210002518009016A228462146C0F606083346D7
:10722000CDF804800AF082F907F2FE3604463046B3
:10723000FDF788F880B210A2009028462146334618
:10724000CDF804800AF072F907F23F460446304652
:10725000FDF778F880B20AA200902846214633460E
:10726000CDF804800AF062F902B0BDE8F08100BFF9
:107270005B5049445D0000005B4E414D455D0000A0
:107280005B50415353574F52445D00002DE9F0418C
:1072900082B01C4615460346104640F65D128846ED
:1072A0008E6FC0F60602214600930AF0FBF806F145
:1072B0000C0704463846FDF745F880B2214640F6F3
:1072C000251400900FA22846C0F606043B46019400
:1072D0000AF02CF97389014600270CA22846009772
:1072E0000AF0E0F898F84110054631B9012088F815
:1072F00041000AF069F8C8F84400284602B0BDE829
:10730000F08100BF5B49505D000000005B504F52B0
:10731000545D00002DE9F043A5B004AC8D6F064626
:107320002046812199469046FCF7CDFF0027ADF815
:107330000E708DF80D7028780DF10D050DF10E0110
:107340002246002300950BF09BFD002846D140F615
:107350005D124046C0F606024946334600960AF0E2
:10736000A1F89DF80D100029014607D040F65712EC
:1073700001274046C0F60602012306E040F65712F8
:1073800000274046C0F60602002300970AF08AF85C
:1073900004AC05462046FCF7D5FF80B240F64F12FC
:1073A00040F6251700904046C0F606022946C0F672
:1073B0000607234601970AF0B9F8BDF80E300146DA
:1073C00008A2404600930AF06DF89DF80D30014682
:1073D00006A2404600930AF065F80746384625B0F5
:1073E000BDE8F0835B4C454E5D0000005B514F53A0
:1073F0005D000000F0B583B08E6F96F85540C4B3C1
:107400000D461946034695F84000A04231D2174672
:10741000104640F65D12C0F6060200930AF042F8EC
:1074200095F840200146531C40F657123846C0F6E6
:10743000060200930AF036F895F84010054601EB75
:10744000C111701800F156063046FCF77BFF80B280
:1074500040F64F120090384640F62517C0F6060257
:107460002946C0F60607334601970AF05FF803B0D5
:10747000F0BD002003B0F0BD10B582B00446806FAF
:107480004FF0000CADF806C000780DF106010022A7
:107490000023CDF800C00BF0F3FC30B9BDF80600B6
:1074A00018B160780A2106F00DFC02B010BD000092
:1074B00080B54878042200F0C5F8012080BD0000A6
:1074C00010B501200C4681F8480009F07DFF014607
:1074D0000120E16410BD0000B0B50C468D6F0021A5
:1074E00006F062FD28784CF2B101C0F60001224698
:1074F0000CF018F80120B0BD70B584B00C468E6F4A
:107500000121104600258DF8071023A219460923F2
:10751000CDE902550AF060F8D0B322A103AA02AB6C
:10752000FCF756FF022820D1029803281FD194F8B7
:10753000480001281DD1D6F80426002084F8480010
:107540001AB10DF10701012090479DF807000128AD
:1075500011D196F85500A8B10021607884F8401048
:10756000092106F0AFFB012512E0002510E00125FE
:107570000EE001250CE060782146022200F062F85E
:10758000012505E060782146022200F05BF8012524
:10759000284604B070BD00BF2B514D54434F4E4E92
:1075A0003A0000002B514D54434F4E4E3A20256473
:1075B0002C25640D00000000F0B585B0054610468E
:1075C00040F634120C468F6F0026C0F606021946AC
:1075D00008230496CDE9026609F0FEFF28B302AE47
:1075E00013A104AA03AB0096FCF7F2FE03284FF0A8
:1075F00000061AD10298C0B90498A84214D194F890
:10760000400097F855200130C1B291424FF000067A
:1076100084F8400009D360782146022284F8406053
:1076200000F010F8012600E00026304605B0F0BD5D
:107630002B514D545355423A2025642C25642C255A
:10764000642C000080B5022803D8034648689042A5
:1076500000D180BD042A4A6009D0022A0AD0012A3A
:10766000F7D1002081F8410081F8480080BD00205A
:10767000C86380BDC868002202280A7504D00128AA
:1076800018BF80BD0FA200E002A20A2001210BF06A
:1076900063F980BD5B736F636B65743A2025645D2D
:1076A000E8BF90E7BBB4E5B9B3E58FB0E5BBBAE797
:1076B000AB8BE8BF9EE68EA5E68890E58A9F210DFC
:1076C0000A0000005B736F636B65743A2025645D8C
:1076D000E8BF90E890A5E5B9B3E58FB0E5BBBAE7A0
:1076E000AB8BE8BF9EE68EA5E68890E58A9F210DCC
:1076F0000A000000B0B582B00C464968042911D0D8
:1077000002291DD001290BD194F84100012829D16B
:10771000606C45F69071C0F2010109F07BFE68BB18
:1077200002B0B0BDE16B71B3206909F073FE0028AF
:10773000F6D0607821460022FFF784FF02B0B0BD8A
:1077400006F018FB0128EBD0606BC82109F062FE3F
:107750000028E5D009F038FE60632046FFF78CFE74
:1077600002B0B0BD94F848000128D9D1E06C45F6CC
:107770009071C0F2010109F04DFE68B32046FFF799
:10778000C7FC02B0B0BD0546207D411CC8B205282B
:10779000D4F8800028BF05212175002818BF804734
:1077A000207D47F23051022808BF42F2107138BFE5
:1077B00041F28831E16309F007FEE16B94F814C0EF
:1077C000206100910DA20A2001212B46CDF804C0B2
:1077D0000BF0C2F802B0B0BD206D40F6B83109F030
:1077E00019FE00289CD009F0EFFD6178206508465D
:1077F0000B2106F067FA02B0B0BD00BF5B736F6388
:107800006B65743A2025645D202564206D7320E546
:10781000908EE8BF9BE8A18CE7ACAC20256420E605
:10782000ACA120E9878DE696B0E8BF9EE68EA52143
:107830000D0A0000B0B50D464968044621B1204646
:107840002946FFF757FFB0BD28780128FBD106F085
:107850001FFC0228F7D108F0EFF9002818BFB0BDCF
:1078600005F138004021FCF72EFD687829460122F9
:10787000FFF7E8FE2046012106F024FA2046022107
:1078800006F020FA2046032106F01CFA20460421C7
:1078900006F018FA2046052106F014FA20460621C3
:1078A00006F010FA2046072106F00CFAB0BD0000E1
:1078B000B0B5856F144605F10C004822FCF72CFD8D
:1078C0006C81B0BDB0B5856F144605F2FE30402224
:1078D000FCF722FD05F23F4021464FF48072FCF791
:1078E0001BFDB0BD70B586B00C4600210591CDE9F9
:1078F000031101218DF80B1003AE2FA105AA04ABD3
:107900000096FCF765FD032852D1059B022B4FDC46
:1079100003EBC30004F1840101EB0014DDE9035023
:10792000A66F284318D040F26C720A20C0F60602F7
:10793000012100950BF010F8D6F8042612B10020B2
:10794000002190470398022823D1032006F0E0FC91
:10795000022006F0C3FC2BE0204610F8481F012946
:1079600026D1D6F80426002101701AB10DF10B01C1
:10797000012090479DF80B0001280ED196F8550084
:1079800088B10021607884F84010092106F09AF946
:107990000EE02046FFF7BCFB0AE060782146022299
:1079A000FFF750FE04E0607821460222FFF74AFE0E
:1079B000002006B070BD00BF2B514D54434F4E4EBA
:1079C0003A2025642C25642C25640D0A0000000053
:1079D00070B584B00E460021CDE902111DA103AAA5
:1079E00002ABFCF7F5FC022831D1039C022C2EDC03
:1079F000029D8436ADB140F26C720A20C0F60602D8
:107A00000121234600950AF0A7FF029820F001000B
:107A1000022816D1032006F07BFC022006F05EFC53
:107A200015E004EBC40006EB0010014611F8412FED
:107A3000012A0CD1002240780A70082106F042F990
:107A400005E004EBC40006EB0010FFF761FB00202B
:107A500004B070BD2B514D544F50454E3A20256413
:107A60002C25640D0A00000080B506F0ADFA002058
:107A700080BD00002DE9F04FABB081460020884664
:107A8000CDE92900CDE9270006A881219246FCF71F
:107A90001AFCBAF1000F4C4658D008F184000FF2DE
:107AA000B80B28AF2AAD56464C460490CDF814903A
:107AB00008E000BF08F10104A9EB040000EB0A068E
:107AC000002E43DDB1B220465A46092309F084FD59
:107AD000E0B3804606A8CDE90005404621A127AACB
:107AE00029AB0297FCF774FC0428E3D12798D14610
:107AF0005D46022808F1010A1EDC2899DDF8A8B0CD
:107B000033190BEB0102A3EB08039A4214DC00EBE0
:107B1000C000049A0AEB010802EB0010806F0478A1
:107B200006A8FCF70FFC1FFA8BF682B2204606A9C6
:107B3000434600960BF00AFC28982A995044CA46FE
:107B4000DDF814904418AB462AADB5E7A4EB090064
:107B50002BB0BDE8F08F00BF2B514D54524543561A
:107B60003A0000002B514D54524543563A202564AB
:107B70002C25642C22253132385B5E225D222C2597
:107B8000642C256E0000000010B582B00C46002168
:107B9000CDE900110FA101AA6B46FCF719FC0228E0
:107BA00015D10198022812DC009981B100EBC000C8
:107BB00004F1840101EB00104168022907D1FFF7AD
:107BC000A7FA019B08A20A2001210AF0C5FE0020A5
:107BD00002B010BD2B514D54535441543A202564EA
:107BE0002C25640D0A0000005B736F636B65743AAB
:107BF0002025645D20E5908EE58FB0E4B8BBE58A72
:107C0000A8E696ADE5BC80E8BF9EE68EA5210D0AEC
:107C100000000000B0B503201446A2F1080506F0EC
:107C200077FB0120092D38BF022006F057FB032CFB
:107C300003D10020232101F017FF0020B0BD000078
:107C4000F0B589B0C86C1F46154600220328CDE95F
:107C50000722CDE90522049203920CD0022813D00A
:107C6000012819D154208DF8100044F64350C4F671
:107C70004970039010E054208DF8100045F2434005
:107C8000C4F24E50039007E054208DF8100044F2E7
:107C90003370C4F24E50039003AE3046FCF752FBF3
:107CA00080B205A4009006A22846394633460194C6
:107CB00009F03CFC09B0F0BD434D4E4554000000B6
:107CC0005B41504E5D00000080B582B0002110463F
:107CD000CDE9001108A101AA6B46FCF779FB0099D8
:107CE00080F0020021F0040181F001010843B0FAA4
:107CF00080F0400902B080BD2B43475245473A25EA
:107D0000642C25640000000070B51646104640F64D
:107D1000D6321D460C46C0F606021946062309F067
:107D20005BFC002804BF002070BD17A23046294626
:107D3000062309F051FC10B10120E06470BD40F64B
:107D40001B423046C0F606022946062309F044FCD1
:107D500048B940F61B423046C0F6060229460623C3
:107D600009F03AFC18B10220E064012070BD08A2BD
:107D700030462946022309F02FFC002804BF0020CA
:107D800070BD0320F0E700BF4D4F42494C45000055
:107D90004354000080B50020232101F04DFE012056
:107DA00080BD000010B582B000200190A9B1062B63
:107DB00013D30FF2300C0C461046194662460623C8
:107DC00009F00AFC58B109A101AAFCF701FB01283E
:107DD00005D1019884F84900012002B010BD0020AF
:107DE00002B010BD2B4353513A2000002B43535196
:107DF0003A2025642C00000010B54FF00000B9B106
:107E00001E2B38BF10BD0FF2300C0C461046194621
:107E10006246082309F0E0FB58B1017F0D2908D123
:107E200000F1080104F124001422FCF725FA0120D6
:107E300010BD002010BD00BF2B51434349443A20E0
:107E40000000000010B54FF00000E1B1182B38BF62
:107E500010BD0FF2380C0C46104619466246072337
:107E600009F0BAFB80B1C17D22290DD18168C268B9
:107E7000D0F8133000696364C4F841000120C4F8ED
:107E80003D20C4F8391010BD002010BD2B434753CE
:107E90004E3A200010B582B01946104600240CA2BC
:107EA0000823019409F098FB70B10CA101AAFCF71A
:107EB0008FFA01284FF0000406D10198012803D160
:107EC000022006F025FA0124204602B010BD00BFB2
:107ED0002B51494143543A20000000002B514941A5
:107EE00043543A2025642C00B0B592B00BA901F19F
:107EF000080201F10C03002401F1100C01F1140E31
:107F000001F118058DE80C5017A109AA0AAB1194CC
:107F1000CDE90F44CDE90D44CDE90B440A94ADF809
:107F20002040CDE906440495FCF752FA072818D101
:107F30000A98ADF82040ADF81800DDE90D018DF884
:107F40001A009DF83C008DF81B1008308DF81C00BD
:107F5000DDE910018DF81D0006A88DF81E1038F01F
:107F600031FA002012B0B0BD2B514E54503A2025AA
:107F7000642C2225642F25642F25642C25643A2542
:107F8000643A25642B0D0A0010B5044640680021B0
:107F9000042884F8401006D8012101FA00F010F0FE
:107FA000190F18BF10BD607805F0FAFE6078042143
:107FB00005F088FE60782146032200F0A9F910BD83
:107FC00080B5042A05D14878042200F0A1F90020E8
:107FD00080BD0846FFF7D8FF012080BDF0B583B013
:107FE0009C4614460346104640F65D128F6FC0F65D
:107FF00006026146009309F055FA7E1C054630469C
:10800000FCF7A0F980B20FF22C0C00900DA22046D4
:1080100029463346CDF804C009F088FAB7F84A304B
:10802000014641F24F5709A22046009709F03AFA5B
:1080300003B0F0BD657673652E676F6E676E697508
:108040002E636E005B4D49505D0000005B4D504F4C
:1080500052545D0080B582B019460346104640F682
:108060005D12C0F60602009309F01CFA02B080BD52
:1080700080B582B019460346104640F65D12C0F640
:108080000602009309F00EFA02B080BD80B582B0FE
:1080900019460346104640F65D12C0F606020093EC
:1080A00009F000FA02B080BDF0B583B0896F0027F7
:1080B000ADF80A7014460A781D4606460DF10A010D
:1080C00010460022002300970AF0DAFE90B940F62D
:1080D0005D122046C0F6060229463346009609F096
:1080E000E1F9BDF80A30014604A22046009309F0E8
:1080F000D9F90746384603B0F0BD00BF5B4C454E8A
:108100005D00000010B582B00446806F4FF0000C97
:10811000ADF806C000780DF1060100220023CDF86D
:1081200000C00AF0ADFE30B9BDF8060018B16078A5
:10813000032105F0C7FD02B010BD000080B54878EE
:10814000042200F0E5F8012080BD00002DE9F04197
:1081500082B014461D468F6F002628A2204619467D
:108160000523019609F038FA18B1304602B0BDE88F
:10817000F08124A220462946062309F02DFAA0B357
:1081800022A101AA0646FCF723F901282FD1A01B42
:10819000284481B2DDF820801FA23046022309F076
:1081A0001BFA30B3019A012A0BDB3978861C97B28F
:1081B000084600210022334600970BF0C7F80198CB
:1081C0003044021BA91A89B2A8F8002040F65502D3
:1081D000C0F60602042309F0FFF900281EBF001BA9
:1081E0000430A8F800000126BFE70026BDE70126FD
:1081F000BBE70126A8F80050B7E700BF4552524F31
:10820000520000002B514952443A00002B51495270
:10821000443A2025640D00000D0A0000B0B5104658
:108220000C460AA21946022309F0D6F950B10125DD
:1082300084F8405009F0C8F8606409F0C5F8A064FB
:108240002846B0BD00252846B0BD00BF4F4B0000FA
:108250002DE9F041A0B08046104641F2A2220C4622
:10826000C0F606021946092309F0B6F910B307A9AA
:1082700008AA09AB06AD0AAE0CAFCDE902320491F3
:108280000EA10BAA1CABCDE900760595FCF7A0F872
:10829000C0B208280ED1089802280BD194F84000EB
:1082A000012807D1002084F84000404621460222E0
:1082B00000F02EF8012020B0BDE8F0812B51495389
:1082C000544154453A2025642C222531355B5E22E9
:1082D0005D222C20222536335B5E225D222C256414
:1082E0002C25642C25642C25642C25642C0000008E
:1082F000B0B50C468D6F002105F056FE28784CF283
:10830000B101C0F6000122460BF00CF90120B0BD0E
:1083100080B5022803D803464868904200D180BD4A
:10832000042A4A6007D0022A08D0012AF7D1002087
:1083300081F8400080BD0020C86380BDC86800226D
:1083400002280A7504D0012818BF80BD0FA200E0E2
:1083500002A20A2002210AF0FFFA80BD5B736F635C
:108360006B65743A2025645DE8BF90E7BBB4E5B95E
:10837000B3E58FB0E5BBBAE7AB8BE8BF9EE68EA551
:10838000E68890E58A9F210D0A0000005B736F6309
:108390006B65743A2025645DE8BF90E890A5E5B967
:1083A000B3E58FB0E5BBBAE7AB8BE8BF9EE68EA521
:1083B000E68890E58A9F210D0A000000B0B582B0E2
:1083C0000C4649680546042915D0022920D0012908
:1083D0001CD194F84000012818D1606C45F69071CA
:1083E000C0F2010109F016F8002858D02046FFF726
:1083F000CBFD02B0B0BDE16B49B3206909F00AF8CA
:1084000020B1607821460022FFF782FF02B0B0BDA4
:10841000A06B40F6B83108F0FDFF30B108F0D4FF92
:10842000A0632846022105F04DFC05F0A3FC0128BD
:10843000ECD0606BC82108F0EDFF0028E6D008F012
:10844000C3FF60632046FFF75DFE02B0B0BD207D34
:10845000411CC8B20528D4F8800028BF0521217529
:10846000002818BF8047207D47F23051022808BFFE
:1084700042F2107138BF41F28831E16308F0A4FF85
:10848000E16B94F814C0206100910DA20A20022132
:108490002B46CDF804C00AF05FFA02B0B0BDA06C64
:1084A00040F6B83108F0B6FF0028AFD008F08CFFD6
:1084B0006178A0640846052105F004FC02B0B0BD57
:1084C0005B736F636B65743A2025645D20256420BF
:1084D0006D7320E5908EE8BF9BE8A18CE7ACAC20E3
:1084E000256420E6ACA120E9878DE696B0E8BF9E22
:1084F000E68EA5210D0A0000B0B50C464968054678
:1085000021B128462146FFF759FFB0BD2078012848
:10851000FBD105F0BDFD0228F7D107F08DFB002847
:1085200018BFB0BD2846012105F0CCFB04F138008E
:108530004021FBF7C8FE607821460122FFF7E8FEE4
:10854000B0BD0000B0B5856F1446681C4822FBF72B
:10855000E3FEA5F84A40B0BD10B582B00C4600213C
:1085600001910CA101AAFBF733FF01280FD101985B
:1085700002280CDC00EBC00004EB00108430FFF795
:1085800003FD019B08A20A2002210AF0E5F9002060
:1085900002B010BD2B51495552433A2022636C6FF3
:1085A000736564222C2564005B736F636B65743A9A
:1085B0002025645D20E5908EE58FB0E4B8BBE58AA8
:1085C000A8E696ADE5BC80E8BF9EE68EA5210D0A23
:1085D00000000000B0B584B00C460021CDE90211C6
:1085E00015A103AA02ABFBF7F3FE022820D1039BDF
:1085F000022B1DD803EBC30104F18400029C00EBA5
:1086000001154CB111A20A20022100940AF0A4F92C
:108610002846FFF7B9FC0BE0284610F8401F012957
:1086200006D100210170D8B229460222FFF770FE60
:10863000002004B0B0BD00BF2B51494F50454E3A09
:108640002025642C25640D0A000000005B736F6315
:108650006B65743A2025645DE8BF9EE68EA5E5A4AF
:10866000B1E8B4A5EFBC8C657272636F64653A20A3
:10867000256420210D0A000010B582B00C460021AF
:1086800001910CA101AAFBF7A3FE01280FD10198CB
:1086900002280CDC00EBC000022104EB001494F86B
:1086A000850005F00FFB08F08FFEC4F8BC00002029
:1086B00002B010BD2B51495552433A2022726563D6
:1086C00076222C25640D000080B505F07DFC00208D
:1086D00080BD000010B502EB0010A1F1010C4FF0BD
:1086E000000E00BF4FF0FF33614600BFC21811F803
:1086F000014F527801336240032B0A70F6D10EF11C
:10870000010EBEF1040F0CF1040C00F1040008BFCF
:1087100010BDE7E710B549690446084647F23051F5
:1087200008F078FE002808BF10BD2046192101F08E
:108730009BF910BDB0B50D46044606F0B1FF00210F
:10874000B0F57A7F38BF012105F80C1F4BF6207178
:10875000C0F2020128460AF037FA6888012818BFDB
:10876000B0BD2046182101F07FF9B0BDB0B50D466F
:10877000896871B10446084643F6982108F04AFE1C
:10878000002808BFB0BD687820B12046162101F04E
:108790006BF9B0BD2046032100F0C6FAB0BD000061
:1087A00010B591F82820012A0ED10446486947F2F5
:1087B0004071C0F21B0108F02DFE002808BF10BD5B
:1087C0002046192101F050F910BD0000B0B50C464B
:1087D000054606F065FF94F82810B1B10021B0F508
:1087E000FA7F38BF012104F80C1F4BF62071C0F24C
:1087F000020120460AF0E8F96088012818BFB0BDE0
:108800002846182101F030F9B0BD41F2873100222D
:108810002546884288BF012205F8202F4EF66021A8
:1088200028460AF0D1F968880128EDD1012084F8A2
:108830002800B0BDB0B50D46896871B10446084640
:1088400043F6982108F0E6FD38B16878002818BF93
:10885000B0BD2046032100F067FAB0BD21B1012967
:1088600018BF7047012100E0002180B503F0A2FA93
:10887000BDE880407047000080B500F0C7FA80BDB9
:1088800080B503F08DFD411E0020022938BF012074
:1088900080BD000080B503F083FD0138B0FA80F0A0
:1088A000400980BD80B500F0E3F880BD80B500F0E0
:1088B000F3F880BD80B503F053FD80BD80B503F0B3
:1088C0007DFD80BD80B508F09BF980BD80B508F0C6
:1088D0009DF980BD80B506F0EBFE80BD80B506F049
:1088E000C1FE80BD10B5044607F00CFF012812BF81
:1088F0000020204606F0D4FE10BD000010B504464E
:1089000007F000FF012812BF0020204606F0B8FE45
:1089100010BD000010B5044607F0F4FE012812BF98
:108920000020204606F0C4FE10BD000080B507F010
:10893000E9FEC0B280BD000080B500F0A3F880BDA4
:1089400080B500F0B1F980BD2DE9F041044600F09A
:108950006BFF0646204600F08DFB0546204603F0DF
:108960001FFD45F2FC58C2F2000898F802100129D8
:1089700009D1012E1AD0022E0BD12046072100F07A
:10898000D3F9BDE8F0812046072100F0CDF9BDE81C
:10899000F0810746204603F0E5F938B1032F0ED1E8
:1089A0002046222101F060F8BDE8F0812046062132
:1089B00000F0BAF9204600F06FFDBDE8F081062D09
:1089C0000BD0042DE3D12046052100F0ADF908F0CD
:1089D000FBFCC8F81400BDE8F08145F22050C2F25B
:1089E0000000006845F64C7100EB4000C0F6050140
:1089F00001EB80004268002A08BFBDE8F08145F223
:108A0000FC51C2F2000120469047BDE8F081000011
:108A100070B5044603F0C4FC45F2FC56C2F20006F1
:108A2000F16999B1054608464FF4FA7108F0F2FC75
:108A3000E0B1B07801280DD12046012100F074F991
:108A40000020F061204600F0BBFE70BD08F0BCFCC9
:108A5000F06170BD032D18BF70BD204600210025B8
:108A600000F062F92046F56100F0AAFE70BD00003A
:108A700045F2FC51C2F200018978002818BF00219C
:108A8000C8B2704745F2FC51C2F2000149680028A3
:108A900018BF00210846704700281CBF00207047FF
:108AA0002C2100FB01F045F2FC51C2F20001085CF0
:108AB0007047000010B5044600F0DCFA032807D028
:108AC00045F2FC50C2F200008078012818BF10BDAA
:108AD0002046012100F028F910BD000080B545F2C4
:108AE000FC50C2F200002C21FBF7EDFB80BD000022
:108AF00080B5002000F090FA80BD0000F0B581B094
:108B0000044600F091FE0646204600F0B3FA054602
:108B1000204603F045FC45F2FC51C2F20001897881
:108B2000012909D1012E1AD0022E0BD1204607218E
:108B300000F0FAF801B0F0BD2046072100F0F4F88B
:108B400001B0F0BD0746204603F00CF938B1032F01
:108B50000ED12046212100F087FF01B0F0BD204654
:108B6000062100F0E1F8204600F096FC01B0F0BDCF
:108B7000062D19D0042DE3D145F22050C2F2000099
:108B8000006845F64C7100EB4000C0F6050101EBB2
:108B900080008268002AD3D045F2FC51C2F2000165
:108BA0002046904701B0F0BD20460421C0E70000F8
:108BB00070B5044600F038FE0546204600F05AFA2B
:108BC000204603F0EDFB45F2FC56C2F20006B178F8
:108BD000012906D1022D09D12046072100F0A4F871
:108BE00070BD2046072100F09FF870BD032804D116
:108BF0002046212100F038FF70BD002DF5D1204620
:108C000003F0B0F8002808BF70BD2046022100F034
:108C10008BF8204600F086FA0020B060707070BDBE
:108C2000F0B581B0044600F025FA0546204600F074
:108C3000FBFD0646204603F0B3FB45F2FC57C2F2AB
:108C40000007B978012906D1012E0CD0022E10D1CF
:108C50002046072109E0032803D12046002100F027
:108C600063F801B0F0BD2046062100F05DF801B0C8
:108C7000F0BD032805D12046212100F0F5FE01B00A
:108C8000F0BD032DEDD12046022100F04DF8204625
:108C900000F048FA0020B8607870C7E9080087F84B
:108CA000280001B0F0BD000001289EBF45F2205110
:108CB000C2F2000108607047B0B582B005460846B0
:108CC0000C4600F0CDFD95B9844645F2FC50C2F249
:108CD0000000817801290AD1416841B9446005A2A8
:108CE000012002210023CDF800C009F035FE02B0BA
:108CF000B0BD00BF5BE69EAAEFBC9A25645DE58F20
:108D000096E6B688E58585E794B5E68E88E69D8388
:108D10002C20E5819CE6ADA2E58E9FE59BA0EFBCF3
:108D20009A2573210D0A00002DE9F04182B010B19F
:108D300002B0BDE8F0810D462C21044600FB01F095
:108D400045F2FC58C2F2000818F80000A842EFD023
:108D500014FB018746F29051C0F6050151F820003E
:108D600051F8256000901EA20120022100230196E7
:108D700009F0F2FDE81E05283D70D9D8DFE800F0C3
:108D8000040F03031A1DD3E7204603F0EDFB2C204C
:108D900014FB00800121417002B0BDE8F0812C205D
:108DA00014FB00800021C0E90311C0E9081102B0E2
:108DB000BDE8F081204600F06FFB2C2014FB0085FD
:108DC000686830B9204600F059FD01462046FFF79B
:108DD00073FF002085F8280002B0BDE8F08100BFD5
:108DE0005BE69EAAEFBC9A25645DE58585E794B5B0
:108DF000E78AB6E68081E58F98E58C963A20257360
:108E0000202D2D2D3E2025730D0A000080B588B938
:108E100045F2FC50C2F200008178012908BF80BDF4
:108E2000002141600121817003A201200221002361
:108E300009F092FD80BD00BF5BE69EAAEFBC9A25BB
:108E4000645DE58585E794B5E68E88E69D83210D12
:108E50000A0000002DE9F041044600F0E5FC06465A
:108E6000204600F007F90546204603F099FA45F23E
:108E7000FC58C2F2000898F80210012903D1012E13
:108E800014D0022E05D120460721FFF74DFFBDE883
:108E9000F0810746204602F065FF38B1032F0ED15E
:108EA0002046212100F0E0FDBDE8F08120460621AA
:108EB000FFF73AFF204600F0EFFABDE8F081062DFB
:108EC00021D0042D06D1D8F8080018B908F07CFA92
:108ED000C8F8080045F22050C2F20000006845F6CC
:108EE0004C7100EB4000C0F6050151F82020002A2B
:108EF00008BFBDE8F08145F2FC51C2F200012046F6
:108F00009047BDE8F08120460421FFF70DFFBDE842
:108F1000F0810000B0B5044607F0F4FB45F2FC55C3
:108F2000C2F200050146A8690022AA7070B131B1F1
:108F300042F2107108F06EFA002808BFB0BD20465A
:108F40000821FFF7F1FE0020A861B0BD08F03CFA4F
:108F5000A861B0BD2DE9F04381B0044600F064FC87
:108F60000746204600F086F80546204603F034FA0E
:108F70008046204603F014FA45F2FC59C2F200097B
:108F800099F8021001290DD1012F26D0022F13D1FB
:108F9000204603F04DFB20460721FFF7C5FE01B038
:108FA000BDE8F083204603F043FB20460721FFF78E
:108FB000BBFE01B0BDE8F0830646204602F0D2FEBB
:108FC00058B1032E16D1204603F032FB2046212152
:108FD00000F04AFD01B0BDE8F083204603F028FB15
:108FE00020460621FFF7A0FE204600F055FA01B00A
:108FF000BDE8F083062D02D120460421CDE7B8F16B
:10900000010FD6D020460221FFF78EFE0020C9F8BE
:10901000080001B0BDE8F08380B545F2FC52C2F211
:1090200000021178082909D8DFE801F0050B0E11BC
:1090300014171A1D2000FFF73DFD80BD00201070A1
:1090400080BDFFF7EDFD80BDFFF704FF80BDFFF79A
:1090500081FF80BDFFF778FC80BDFFF74FFD80BD2D
:10906000FFF7A6FD80BDFFF755FF80BDFFF7D0FCE1
:1090700080BD000000281CBF0020704700EB4000AE
:1090800045F22861C2F2000111F83000704700007B
:1090900045F22860C2F200000021C0E90011C0E9D9
:1090A0000211C0E90411704780B5002000F0BCF93E
:1090B00080BD000070B582B000EB400245F2286C24
:1090C000C2F2000C03461CF83200884212D00C4653
:1090D00046F2B451C0F6050151F8200051F8245071
:1090E0000CEBC206009004A200200221019509F0B9
:1090F00033FC347002B070BD5BE69EAAEFBC9A25CB
:10910000645D45565345E78AB6E68081E58F98E56C
:109110008C963A202573202D2D2D3E2025730D0A87
:109120000000000080B500B180BD00EB400045F2BA
:109130002861C2F2000101EBC00010F80C1F0129E8
:1091400008BF80BD0121017002A20020022109F0A8
:1091500003FC80BD5BE69EAAEFBC9A25645DE8AF88
:10916000B7E6B182E5BC80E5A78BE58585E794B5D8
:10917000EFBC810D0A000000B0B5044600F0ACFB66
:1091800045F228650128C2F2000502D108F01CF959
:10919000686068684FF4967108F03CF9002808BFD1
:1091A000B0BD20460121FFF785FFB0BD10B50139E4
:1091B000012904460AD845F22860C2F200000021C5
:1091C000016120460421FFF775FF10BD20460121F3
:1091D000FFF770FF204603F0B7FA10BD10B54A1E26
:1091E000012A0CD8044608F0EFF845F22861C2F2D3
:1091F0000001886020460321FFF75CFF10BD0329B2
:1092000018BF10BD45F22860C2F200000021A0F88E
:109210000D1010BDB0B545F22865C2F200052A7BDD
:109220000446012A1ED103292AD0022930D001295F
:1092300025D1286928B9204607F026FA08F0C4F895
:10924000286128694FF47A7108F0E4F8B8B1204633
:1092500007F058FA012818BFB0BD20460621FFF7D5
:1092600029FFB0BD204603F06FFA204607F0CCF985
:1092700008F0AAF8A86020460321FFF71BFFB0BD45
:10928000204607F0C1F920460221FFF713FFB0BDC9
:10929000204607F0B9F900202861B0BDF0B581B0D3
:1092A00045F22866C2F200060D46B168044608463B
:1092B0004FF47A7108F0AEF888B106F099FC0227F5
:1092C00001284FF0020008D1707B002804BF20461F
:1092D00007F0F6FA204607F023FA7073B773681E9A
:1092E000012813D8707B02281CD1B07B022819D129
:1092F000307B012816D1204603F0D4F92046042102
:10930000FFF7D8FE0020306101B0F0BD032D09D178
:1093100020460121FFF7CEFE204603F055F92046F6
:1093200007F002FB01B0F0BDB0B5032904460FD031
:10933000022915D1204607F067F920460421FFF7DE
:10934000B9FE45F22860C2F2000000210161B0BD03
:10935000204607F059F920460221FFF7ABFEB0BDC9
:1093600045F22865C2F20005287B002818BFB0BD71
:10937000204603F0E9F920460521FFF79BFE08F09F
:1093800023F86861B0BD0000B0B50229044606D0DC
:1093900003290FD1204607F037F901211DE02046AF
:1093A00007F032F908F010F845F22861C2F2000126
:1093B000886011E045F22865C2F20005686941F253
:1093C000707108F027F8002808BFB0BD204607F0EC
:1093D0001BF907F0F9FFA86003212046FFF76AFE9A
:1093E000B0BD0000B0B545F22865C2F2000529788D
:1093F000C1B1044600F070FA012818BFB0BD204684
:1094000007F092FA204603F0DFF807F0DDFF68600E
:10941000204603F099F9204607F0F6F8204600218F
:10942000FFF748FEB0BD0000B0B5044602F0B8FF3B
:1094300005462046FFF7D6FF45F22860C2F200003D
:109440000078062888BFB0BDDFE800F004080D12E0
:10945000171C21002046FFF78FFEB0BD204629468D
:10946000FFF7BCFEB0BD20462946FFF79FFEB0BD0A
:1094700020462946FFF712FFB0BD20462946FFF7D8
:10948000C9FEB0BD20462946FFF77EFFB0BD20468D
:109490002946FFF749FFB0BD80B500B180BD00EBA4
:1094A000400045F22861C2F2000101EBC00010F853
:1094B0000C1F002908BF80BD0021017002A20020FE
:1094C000022109F049FA80BD5BE69EAAEFBC9A250D
:1094D000645DE8AFB7E6B182E5819CE6ADA2E585C3
:1094E00085E794B5EFBC810D0A00000070B582B02D
:1094F00007F086FB45F29845C2F200052C4604F8B9
:10950000080B0B26A9192878497888424FF00000EB
:1095100088BF012004F8080F1E21204609F054FBE3
:1095200001360D2EEED16878032800F29A80DFE82C
:1095300000F00217314E688B012840F09280012024
:10954000687007F041FFA86007F03EFF6860287868
:10955000697BA0F13203A1F132064BA204207CE02A
:10956000A86849F2E031C0F2040107F053FF002877
:1095700077D0688B01285DD1032068702878697BDB
:109580004BF6D162A0F13203A1F132060420C0F6FD
:10959000050262E0688B49F2E034C0F2040460B373
:1095A000A868214607F036FF50B30320687028787A
:1095B000697B4BF6B672A0F13203A1F132060420AA
:1095C000C0F605020221009609F0C6F918E0002055
:1095D00002F0E6FE032844D1688A002841D1002029
:1095E00068702878297B4CF25612A0F13203A1F161
:1095F00032060420C0F605022FE007F0E5FEA86061
:10960000688A012803D107F0DFFE686029E06868F6
:10961000214607F0FFFE20B3002068702878297BE0
:109620004CF2B502A0F13203A1F132060420C0F6DB
:10963000050212E00220687007F0C6FEA86007F07D
:10964000C3FE68602878697B4BF63362A0F1320371
:10965000A1F132060420C0F605020221009609F0AD
:109660007BF96878A97888420CD00328A8704FF05D
:1096700000004FF0110103D100F0F6F902B070BD07
:1096800000F0DAF902B070BDE5BD93E5898DE78E93
:10969000AFE5A283E6B8A9E5BAA62564E28483E52E
:1096A000A4A7E4BA8E2564E284832C205BE6ADA3F4
:1096B000E5B8B85D202D2D3E205BE99990E6B58197
:1096C000415D0D0A00000000F0B581B0012A15D1FE
:1096D0001F4614460E460546012B18BF052F0FD115
:1096E00028463146FFF7E8FA022F07D3304600F04C
:1096F000B7F801462846224636F042FA01B0F0BDDE
:10970000062FF1D1284602F0ABFEE9E70246002819
:109710004FF000000CD1242988BF704745F240600B
:10972000C2F20000C82312FB0300084490F82C008A
:1097300070470000F0B581B00C6845F24062C2F29B
:1097400000021619334613F82C5F012D23D107466A
:1097500000201870F0790B7D984234BF8868C86883
:10976000135C002B1CBF013B13548D690BA202201C
:1097700002213B46009509F0EFF896F85130384643
:10978000214600220024FFF79FFF86F8514000F099
:10979000BBF800F045F901B0F0BD00BF5BE69EAA42
:1097A000EFBC9A25645DE69585E99A9CEFBC9A5BCF
:1097B00025735D20E692A4E994800D0A0000000064
:1097C000002818BF704710B51621044600F034F980
:1097D0002046192100F030F92046182100F02CF91C
:1097E00020461A2100F028F920461C2100F024F917
:1097F00020461D2100F020F920461E2100F01CF912
:1098000020461F2100F018F92046202100F014F90D
:109810002046212100F010F92046222100F00CF909
:10982000BDE810407047000000281CBF02207047B0
:1098300045F24061C2F20001C82210FB0210D0F8CC
:10984000C000704700281CBF0020704745F24061EF
:10985000C2F20001C82210FB0210D0F8C400704709
:10986000242884BF00207047C0EBC00045F6647117
:10987000C0F6050101EB80008069704700281EBF1B
:109880000020C0B2704745F240610020C2F20001E2
:109890004FF0010C03E000BF013025280FD00B185A
:1098A00093F82C20012AF7D193F85130062BF3D8E6
:1098B0000CFA03F212F0620FEED0C0B2704725200E
:1098C000C0B2704780B545F24060C2F20000C821C6
:1098D000FAF7F9FC80BD000008B10020704745F29E
:1098E0004061C2F20001C82210FB02131B794BB980
:1098F00010FB021252792AB9C82210FB021080799B
:109900000028EAD00120704745F24060C2F2000012
:10991000417842798379114319431EBF0221C0F86F
:10992000C0107047C1780279114318BF0121C0F8F7
:10993000C0107047F0B581B00C6845F24062C2F2C9
:1099400000021619334613F82C5F012D39D0074653
:10995000012018708868135C0133135402EB440033
:109960000023A0F87630304610F8073F0D7DAB425B
:109970003CBF0133037000780B7D984203D28868A6
:1099800086F851000AE0C86886F851008868135CC0
:10999000013B1354C868135C013313548D690AA248
:1099A000022002213B46009508F0D6FFFFF7ACFFEE
:1099B00000F036F896F85130384621460122FFF77C
:1099C00083FE01B0F0BD00BF5BE69EAAEFBC9A2506
:1099D000645DE69585E99A9CEFBC9A5B25735D20F2
:1099E000E4BAA7E7949F0D0A0000000070B50028B4
:1099F00018BF70BD04460D46012606E020463146DC
:109A000000F01AF80136202E08D025FA06F0C0071B
:109A1000F4D02046314600F027F8F3E770BD00008F
:109A200045F24060C2F20000D0F8C410013128BFF6
:109A30000121C0F8C4107047A0B9242988BF70471D
:109A400080B5C1EBC10145F66472C0F6050202EBB8
:109A500081014A68023A18BF02461046FFF76AFEC3
:109A6000BDE8804070470000A0B9242988BF704736
:109A700080B5C1EBC10145F66472C0F6050202EB88
:109A800081014A68023A18BF02461046FFF752FFAA
:109A9000BDE88040704700002DE9F04184B00446E5
:109AA00007F0B4F804EB440145F2B842C2F20002F8
:109AB00002EB01160B27354605F8080BF119307833
:109AC000497888424FF0000088BF012005F8080F50
:109AD0001E21284609F078F801370F2FEED13746BE
